{
  "contractName": "Portfolios",
  "abi": [
    {
      "constant": false,
      "inputs": [
        {
          "name": "whitepaper",
          "type": "bytes32"
        },
        {
          "name": "title",
          "type": "string"
        }
      ],
      "name": "newProject",
      "outputs": [],
      "payable": false,
      "stateMutability": "nonpayable",
      "type": "function"
    },
    {
      "constant": true,
      "inputs": [
        {
          "name": "",
          "type": "uint256"
        }
      ],
      "name": "projects",
      "outputs": [
        {
          "name": "creator",
          "type": "address"
        },
        {
          "name": "whitepaper",
          "type": "bytes32"
        },
        {
          "name": "title",
          "type": "string"
        },
        {
          "name": "n_votes",
          "type": "uint256"
        }
      ],
      "payable": false,
      "stateMutability": "view",
      "type": "function"
    },
    {
      "constant": true,
      "inputs": [],
      "name": "kill",
      "outputs": [],
      "payable": false,
      "stateMutability": "view",
      "type": "function"
    },
    {
      "constant": true,
      "inputs": [],
      "name": "votesLeft",
      "outputs": [
        {
          "name": "",
          "type": "uint256"
        }
      ],
      "payable": false,
      "stateMutability": "view",
      "type": "function"
    },
    {
      "constant": false,
      "inputs": [],
      "name": "grade",
      "outputs": [
        {
          "name": "_grade",
          "type": "uint8"
        }
      ],
      "payable": false,
      "stateMutability": "nonpayable",
      "type": "function"
    },
    {
      "constant": true,
      "inputs": [
        {
          "name": "",
          "type": "address"
        }
      ],
      "name": "memberships",
      "outputs": [
        {
          "name": "i_project",
          "type": "uint256"
        },
        {
          "name": "assigned",
          "type": "bool"
        }
      ],
      "payable": false,
      "stateMutability": "view",
      "type": "function"
    },
    {
      "constant": false,
      "inputs": [
        {
          "name": "i_project",
          "type": "uint256"
        },
        {
          "name": "n_votes",
          "type": "uint256"
        }
      ],
      "name": "vote",
      "outputs": [],
      "payable": false,
      "stateMutability": "nonpayable",
      "type": "function"
    },
    {
      "constant": true,
      "inputs": [],
      "name": "teacher",
      "outputs": [
        {
          "name": "",
          "type": "address"
        }
      ],
      "payable": false,
      "stateMutability": "view",
      "type": "function"
    },
    {
      "constant": true,
      "inputs": [],
      "name": "n_projects",
      "outputs": [
        {
          "name": "",
          "type": "uint256"
        }
      ],
      "payable": false,
      "stateMutability": "view",
      "type": "function"
    },
    {
      "constant": false,
      "inputs": [],
      "name": "capital",
      "outputs": [
        {
          "name": "_capital",
          "type": "uint256"
        }
      ],
      "payable": false,
      "stateMutability": "nonpayable",
      "type": "function"
    },
    {
      "constant": false,
      "inputs": [
        {
          "name": "i_project",
          "type": "uint256"
        }
      ],
      "name": "joinProject",
      "outputs": [],
      "payable": false,
      "stateMutability": "nonpayable",
      "type": "function"
    },
    {
      "constant": true,
      "inputs": [],
      "name": "homeProject",
      "outputs": [
        {
          "name": "",
          "type": "int256"
        }
      ],
      "payable": false,
      "stateMutability": "view",
      "type": "function"
    },
    {
      "inputs": [],
      "payable": false,
      "stateMutability": "nonpayable",
      "type": "constructor"
    },
    {
      "anonymous": false,
      "inputs": [
        {
          "indexed": false,
          "name": "voter",
          "type": "address"
        },
        {
          "indexed": false,
          "name": "i_project",
          "type": "uint256"
        },
        {
          "indexed": false,
          "name": "n_votes",
          "type": "uint256"
        }
      ],
      "name": "Voted",
      "type": "event"
    }
  ],
  "bytecode": "0x606060405260006002556001600555341561001957600080fd5b60008054600160a060020a03338116600160a060020a0319909216919091178083558116825260046020526040808320805460ff19166001908117909155835490921683529091206801e5b8fa8fe2ac0000910155610b828061007d6000396000f3006060604052600436106100b95763ffffffff7c01000000000000000000000000000000000000000000000000000000006000350416630893480b81146100be578063107046bd1461011657806341c0e1b5146101d45780636cb6ca41146101e75780636f79b13a1461020c57806373d9879914610235578063b384abef1461026e578063b46bff8914610287578063ba65d03c146102b6578063d211fd18146102c9578063df98e5f9146102dc578063f8684652146102f2575b600080fd5b34156100c957600080fd5b610114600480359060446024803590810190830135806020601f8201819004810201604051908101604052818152929190602084018383808284375094965061030595505050505050565b005b341561012157600080fd5b61012c600435610372565b604051600160a060020a038516815260208101849052606081018290526080604082018181528454600261010060018316150260001901909116049183018290529060a0830190859080156101c25780601f10610197576101008083540402835291602001916101c2565b820191906000526020600020905b8154815290600101906020018083116101a557829003601f168201915b50509550505050505060405180910390f35b34156101df57600080fd5b6101146103a3565b34156101f257600080fd5b6101fa6103a5565b60405190815260200160405180910390f35b341561021757600080fd5b61021f6103c5565b60405160ff909116815260200160405180910390f35b341561024057600080fd5b610254600160a060020a036004351661043b565b604051918252151560208201526040908101905180910390f35b341561027957600080fd5b610114600435602435610457565b341561029257600080fd5b61029a610527565b604051600160a060020a03909116815260200160405180910390f35b34156102c157600080fd5b6101fa610536565b34156102d457600080fd5b6101fa61053c565b34156102e757600080fd5b610114600435610660565b34156102fd57600080fd5b6101fa6108b4565b60028054600090815260016020526040902090810183905560038101828051610332929160200190610a52565b50805473ffffffffffffffffffffffffffffffffffffffff191633600160a060020a0316178155600280546001810190915561036d90610660565b505050565b6001602052600090815260409020805460028201546004830154600160a060020a0390921692909160039091019084565b565b600160a060020a0333166000908152600460205260409020600101545b90565b6000806103d061053c565b90506706f05b59d3b2000081116103ea5760069150610437565b670de0b6b3a764000081116104025760079150610437565b671158e460913d0000811161041a5760089150610437565b6718493fba64ef000081116104325760099150610437565b600a91505b5090565b6003602052600090815260409020805460019091015460ff1682565b61045f610901565b600160a060020a0333166000908152600460205260409020600101548190101561048857610523565b600160a060020a0333166000908152600460208181526040808420600190810180548790039055868552909152909120018054820190556104c98282610963565b7fea66f58e474bc09f580000e81f31b334d171db387d0c6098ba47bd897741679b3383836040518084600160a060020a0316600160a060020a03168152602001838152602001828152602001935050505060405180910390a15b5050565b600054600160a060020a031681565b60025481565b60008060008060008061054d610901565b600160a060020a0333166000908152600460205260409020600101546002900495506105776108b4565b94506000198514610658576000858152600160208190526040909120908101546004820154919550600202908115156105ac57fe5b600160a060020a033316600090815260066020526040812092909104979097019690935091505b8254821015610658576001600084848154811015156105ee57fe5b9060005260206000209060020201600001548152602001908152602001600020905080600101805490508160040154848481548110151561062b57fe5b9060005260206000209060020201600101540281151561064757fe5b0495909501946001909101906105d3565b505050505090565b600080600254831015156106735761036d565b600160a060020a03331660009081526003602052604090206001015460ff161561080b575050600160a060020a033316600090815260036020526040812054905b6000828152600160208190526040909120015460ff82161015610726576000828152600160208190526040909120018054600160a060020a033316919060ff84169081106106fe57fe5b600091825260209091200154600160a060020a0316141561071e57610726565b6001016106b4565b600082815260016020819052604090912001546000190160ff821610156107e657600160008381526020019081526020016000206001018160010160ff1681548110151561077057fe5b60009182526020808320909101548483526001918290526040909220018054600160a060020a039092169160ff84169081106107a857fe5b6000918252602090912001805473ffffffffffffffffffffffffffffffffffffffff1916600160a060020a0392909216919091179055600101610726565b600082815260016020819052604090912001805490610809906000198301610acc565b505b600160a060020a03331660009081526003602090815260408083208681556001908101805460ff19168217905586845291829052909120810180549161085391908301610acc565b506000838152600160208190526040909120018054339190600019810190811061087957fe5b6000918252602090912001805473ffffffffffffffffffffffffffffffffffffffff1916600160a060020a0392909216919091179055505050565b600160a060020a03331660009081526003602052604081206001015460ff1615156108e257506000196103c2565b50600160a060020a0333166000908152600360205260409020546103c2565b600160a060020a03331660009081526004602052604090205460ff1615156103a357600160a060020a0333166000908152600460205260409020805460ff191660019081178255670de0b6b3a764000091810191909155600580549091019055565b600160a060020a03331660009081526006602052604081209080805b83548210156109ec5785848381548110151561099757fe5b90600052602060002090600202016000015414156109e157600192508484838154811015156109c257fe5b60009182526020909120600160029092020101805490910190556109ec565b60019091019061097f565b821515610a4a578354610a028560018301610af0565b9050858482815481101515610a1357fe5b600091825260209091206002909102015583548590859083908110610a3457fe5b9060005260206000209060020201600101819055505b505050505050565b828054600181600116156101000203166002900490600052602060002090601f016020900481019282601f10610a9357805160ff1916838001178555610ac0565b82800160010185558215610ac0579182015b82811115610ac0578251825591602001919060010190610aa5565b50610437929150610b1c565b81548183558181151161036d5760008381526020902061036d918101908301610b1c565b81548183558181151161036d5760020281600202836000526020600020918201910161036d9190610b36565b6103c291905b808211156104375760008155600101610b22565b6103c291905b808211156104375760008082556001820155600201610b3c5600a165627a7a72305820e5f219c39fa723ad4af025cc97aa6c0f52e9f5827ab70da8cf68d104f3d1bf290029",
  "source": "pragma solidity ^0.4.2;\n\ncontract Portfolios {\n\n    address public teacher;\n\n    // ------------------------------------------------------------------------\n    // Project management\n    // ------------------------------------------------------------------------\n\n    // Project definition\n    struct Project {\n        address creator;\n        address[] members;   // maximum of 10 members per project\n\n        bytes32 whitepaper;  // IPFS hash\n        string title;\n        // string summary;\n\n        uint n_votes;        // amount of investment so far\n    }\n\n    // A dynamic list (implemented as a mapping) of projects\n    mapping(uint => Project) public projects;\n    uint public n_projects = 0;\n\n    //TODO: this is redundant with Project::members\n    struct Membership {\n        uint i_project;\n        bool assigned;\n    }\n    mapping(address => Membership) public memberships;\n\n    // ------------------------------------------------------------------------\n    // Voting\n    // ------------------------------------------------------------------------\n\n    struct voter {\n        bool active;\n        uint n_votes;\n    }\n\n    mapping(address => voter) voters;\n    uint activeVoters = 1;\n\n    struct votecast {\n        uint i_project;\n        uint n_votes;\n    }\n\n    mapping(address => votecast[]) investments;\n\n    // ------------------------------------------------------------------------\n    // Events\n    // ------------------------------------------------------------------------\n\n    event Voted(address voter, uint i_project, uint n_votes);\n\n    // ------------------------------------------------------------------------\n    // Constructor and a kill switch\n    // ------------------------------------------------------------------------\n\n    function Portfolios()\n      public\n    {\n        teacher = msg.sender;\n        voters[teacher].active = true;\n        voters[teacher].n_votes = 35 ether;\n    }\n\n    function kill()\n      public view\n    {\n        if (msg.sender != teacher)\n            return;\n\n    }\n\n    // ------------------------------------------------------------------------\n    // Private methods\n    // ------------------------------------------------------------------------\n\n    // Checks if the user is new and if so, initializes his/her voting capital\n    // to 1 ether.\n    function initVotes()\n      private\n    {\n        if (!voters[msg.sender].active) {\n            voters[msg.sender].active = true;\n            voters[msg.sender].n_votes = 1 ether;\n            activeVoters++;\n        }\n    }\n\n    function updateInvestments(uint i_project, uint n_votes)\n      private\n    {\n        votecast[] storage portfolio = investments[msg.sender];\n\n        bool alreadyVoted = false;\n        for (uint i_vote = 0; i_vote < portfolio.length; i_vote++) {\n            if (portfolio[i_vote].i_project == i_project) {\n                alreadyVoted = true;\n                portfolio[i_vote].n_votes += n_votes;\n                break;\n            }\n        }\n        if (!alreadyVoted) {\n            uint voteLogLength = portfolio.length++;\n            portfolio[voteLogLength].i_project = i_project;\n            portfolio[voteLogLength].n_votes = n_votes;\n        }\n    }\n\n    // ------------------------------------------------------------------------\n    // Public methods for voting and grading\n    // ------------------------------------------------------------------------\n\n    // Vote casting\n    function vote(uint i_project, uint n_votes)\n      public\n    {\n        initVotes();\n        if (voters[msg.sender].n_votes < n_votes)\n            return; // insufficient funds\n\n        voters[msg.sender].n_votes  -= n_votes;\n        projects[i_project].n_votes += n_votes;\n\n        updateInvestments(i_project, n_votes);\n\n        Voted(msg.sender, i_project, n_votes);\n    }\n\n    // How much capital does a voter have?\n    function capital()\n      public\n      returns (uint _capital)\n    {\n        initVotes();\n\n        // 1. Capital not invested\n        _capital = voters[msg.sender].n_votes / 2;\n\n        int hp = homeProject();\n        if (hp != -1) {\n\n            // 2. Capital earned in own project\n            Project storage myProject = projects[uint(hp)];\n            _capital += myProject.n_votes / (2 * myProject.members.length);\n\n            // 3. Capital invested in other projects\n            votecast[] storage portfolio = investments[msg.sender];\n            for (uint i_vote = 0; i_vote < portfolio.length; i_vote++) {\n                Project storage p = projects[portfolio[i_vote].i_project];\n                _capital += portfolio[i_vote].n_votes * p.n_votes / (p.members.length);\n            }\n        }\n    }\n\n    // What is the current grade? Grade is multiplied by 2 to avoid fixed point\n    // arithmetics.\n    function grade()\n      public\n      returns (uint8 _grade)\n    {\n        uint _capital = capital();\n        if (_capital <= 0.5 ether)\n            _grade = 6;\n        else if(_capital <= 1.0 ether)\n            _grade = 7;\n        else if(_capital <= 1.25 ether)\n            _grade = 8;\n        else if(_capital <= 1.75 ether)\n            _grade = 9;\n        else\n            _grade = 10;\n    }\n\n    function votesLeft()\n      public view\n      returns (uint)\n    {\n      return voters[msg.sender].n_votes;\n    }\n\n    // ------------------------------------------------------------------------\n    // Public methods for project management\n    // ------------------------------------------------------------------------\n\n    // Creates a new project\n    function newProject(bytes32 whitepaper, string title)\n      public\n    {\n        Project storage p = projects[n_projects];\n        p.whitepaper = whitepaper;\n        p.title = title;\n        p.creator = msg.sender;\n        n_projects++;\n        joinProject(n_projects - 1);\n    }\n\n    // Joins a project\n    function joinProject(uint i_project)\n      public\n    {\n        if (i_project >= n_projects)\n            return;\n        if (memberships[msg.sender].assigned) {  // already a member\n            uint existingProject = memberships[msg.sender].i_project;\n            uint8 i_member = 0;\n            for (; i_member < projects[existingProject].members.length; i_member++) {\n                if (projects[existingProject].members[i_member] == msg.sender)\n                    break;\n            }\n            for (; i_member < projects[existingProject].members.length - 1; i_member++) {\n                projects[existingProject].members[i_member] = projects[existingProject].members[i_member + 1];\n            }\n            projects[existingProject].members.length--;\n        }\n        memberships[msg.sender].i_project = i_project;\n        memberships[msg.sender].assigned = true;\n\n        projects[i_project].members.length++;\n        projects[i_project].members[projects[i_project].members.length - 1] = msg.sender;\n    }\n\n    // What is my home project?\n    function homeProject()\n      public view\n      returns (int)\n    {\n        if (!memberships[msg.sender].assigned) {  // already a member\n            return -1;\n        } else {\n            return int(memberships[msg.sender].i_project);\n        }\n    }\n}\n",
  "sourcePath": "/home/sraczynski/workspace/pg/romo/backend/contracts/Portfolios.sol",
  "compiler": {
    "name": "solc",
    "version": "0.4.18+commit.9cf6e910.Emscripten.clang"
  },
  "schemaVersion": "1.0.1",
  "updatedAt": "2018-01-07T14:47:21.902Z"
}