{
  "contractName": "Portfolios",
  "abi": [
    {
      "constant": false,
      "inputs": [
        {
          "name": "whitepaper",
          "type": "bytes32"
        },
        {
          "name": "title",
          "type": "string"
        }
      ],
      "name": "newProject",
      "outputs": [],
      "payable": false,
      "stateMutability": "nonpayable",
      "type": "function"
    },
    {
      "constant": false,
      "inputs": [],
      "name": "kill",
      "outputs": [],
      "payable": false,
      "stateMutability": "nonpayable",
      "type": "function"
    },
    {
      "constant": false,
      "inputs": [],
      "name": "grade",
      "outputs": [
        {
          "name": "_grade",
          "type": "uint8"
        }
      ],
      "payable": false,
      "stateMutability": "nonpayable",
      "type": "function"
    },
    {
      "constant": false,
      "inputs": [
        {
          "name": "i_project",
          "type": "uint256"
        },
        {
          "name": "n_votes",
          "type": "uint256"
        }
      ],
      "name": "vote",
      "outputs": [],
      "payable": false,
      "stateMutability": "nonpayable",
      "type": "function"
    },
    {
      "constant": true,
      "inputs": [],
      "name": "teacher",
      "outputs": [
        {
          "name": "",
          "type": "address"
        }
      ],
      "payable": false,
      "stateMutability": "view",
      "type": "function"
    },
    {
      "constant": true,
      "inputs": [],
      "name": "n_projects",
      "outputs": [
        {
          "name": "",
          "type": "uint256"
        }
      ],
      "payable": false,
      "stateMutability": "view",
      "type": "function"
    },
    {
      "constant": false,
      "inputs": [],
      "name": "capital",
      "outputs": [
        {
          "name": "_capital",
          "type": "uint256"
        }
      ],
      "payable": false,
      "stateMutability": "nonpayable",
      "type": "function"
    },
    {
      "constant": false,
      "inputs": [
        {
          "name": "i_project",
          "type": "uint256"
        }
      ],
      "name": "joinProject",
      "outputs": [],
      "payable": false,
      "stateMutability": "nonpayable",
      "type": "function"
    },
    {
      "constant": true,
      "inputs": [],
      "name": "homeProject",
      "outputs": [
        {
          "name": "",
          "type": "int256"
        }
      ],
      "payable": false,
      "stateMutability": "view",
      "type": "function"
    },
    {
      "inputs": [],
      "payable": false,
      "stateMutability": "nonpayable",
      "type": "constructor"
    },
    {
      "anonymous": false,
      "inputs": [
        {
          "indexed": false,
          "name": "voter",
          "type": "address"
        },
        {
          "indexed": false,
          "name": "i_project",
          "type": "uint256"
        },
        {
          "indexed": false,
          "name": "n_votes",
          "type": "uint256"
        }
      ],
      "name": "Voted",
      "type": "event"
    }
  ],
  "bytecode": "0x6060604052341561000f57600080fd5b336000806101000a81548173ffffffffffffffffffffffffffffffffffffffff021916908373ffffffffffffffffffffffffffffffffffffffff1602179055506001600460008060009054906101000a900473ffffffffffffffffffffffffffffffffffffffff1673ffffffffffffffffffffffffffffffffffffffff1673ffffffffffffffffffffffffffffffffffffffff16815260200190815260200160002060000160006101000a81548160ff0219169083151502179055506801e5b8fa8fe2ac0000600460008060009054906101000a900473ffffffffffffffffffffffffffffffffffffffff1673ffffffffffffffffffffffffffffffffffffffff1673ffffffffffffffffffffffffffffffffffffffff1681526020019081526020016000206001018190555060016005819055506000600281905550610f848061015b6000396000f300606060405260043610610099576000357c0100000000000000000000000000000000000000000000000000000000900463ffffffff1680630893480b1461009e57806341c0e1b5146101085780636f79b13a1461011d578063b384abef1461014c578063b46bff8914610178578063ba65d03c146101cd578063d211fd18146101f6578063df98e5f91461021f578063f868465214610242575b600080fd5b34156100a957600080fd5b61010660048080356000191690602001909190803590602001908201803590602001908080601f0160208091040260200160405190810160405280939291908181526020018383808284378201915050505050509190505061026b565b005b341561011357600080fd5b61011b610331565b005b341561012857600080fd5b61013061038f565b604051808260ff1660ff16815260200191505060405180910390f35b341561015757600080fd5b610176600480803590602001909190803590602001909190505061040e565b005b341561018357600080fd5b61018b61055b565b604051808273ffffffffffffffffffffffffffffffffffffffff1673ffffffffffffffffffffffffffffffffffffffff16815260200191505060405180910390f35b34156101d857600080fd5b6101e0610580565b6040518082815260200191505060405180910390f35b341561020157600080fd5b610209610586565b6040518082815260200191505060405180910390f35b341561022a57600080fd5b610240600480803590602001909190505061072d565b005b341561024d57600080fd5b610255610b16565b6040518082815260200191505060405180910390f35b8160016000600254815260200190815260200160002060020181600019169055508060016000600254815260200190815260200160002060030190805190602001906102b8929190610e26565b503360016000600254815260200190815260200160002060000160006101000a81548173ffffffffffffffffffffffffffffffffffffffff021916908373ffffffffffffffffffffffffffffffffffffffff16021790555061031b60025461072d565b6002600081548092919060010191905055505050565b6000809054906101000a900473ffffffffffffffffffffffffffffffffffffffff1673ffffffffffffffffffffffffffffffffffffffff163373ffffffffffffffffffffffffffffffffffffffff1614151561038c5761038d565b5b565b60008061039a610586565b90506706f05b59d3b20000811115156103b6576006915061040a565b670de0b6b3a7640000811115156103d05760079150610409565b671158e460913d00008110156103e95760089150610408565b6718493fba64ef00008110156104025760099150610407565b600a91505b5b5b5b5090565b610416610bde565b80600460003373ffffffffffffffffffffffffffffffffffffffff1673ffffffffffffffffffffffffffffffffffffffff16815260200190815260200160002060010154101561046557610557565b80600460003373ffffffffffffffffffffffffffffffffffffffff1673ffffffffffffffffffffffffffffffffffffffff168152602001908152602001600020600101600082825403925050819055508060016000848152602001908152602001600020600401600082825401925050819055506104e38282610cf3565b7fea66f58e474bc09f580000e81f31b334d171db387d0c6098ba47bd897741679b338383604051808473ffffffffffffffffffffffffffffffffffffffff1673ffffffffffffffffffffffffffffffffffffffff168152602001838152602001828152602001935050505060405180910390a15b5050565b6000809054906101000a900473ffffffffffffffffffffffffffffffffffffffff1681565b60025481565b600080600080600080610597610bde565b6002600460003373ffffffffffffffffffffffffffffffffffffffff1673ffffffffffffffffffffffffffffffffffffffff168152602001908152602001600020600101548115156105e557fe5b0495506105f0610b16565b94507fffffffffffffffffffffffffffffffffffffffffffffffffffffffffffffffff85141515610725576001600086815260200190815260200160002093508360010180549050846004015481151561064657fe5b0486019550600660003373ffffffffffffffffffffffffffffffffffffffff1673ffffffffffffffffffffffffffffffffffffffff1681526020019081526020016000209250600091505b8280549050821015610724576001600084848154811015156106af57fe5b906000526020600020906002020160000154815260200190815260200160002090508060010180549050670de0b6b3a764000002816004015484848154811015156106f657fe5b9060005260206000209060020201600101540281151561071257fe5b04860195508180600101925050610691565b5b505050505090565b6000806002548310151561074057610b11565b600360003373ffffffffffffffffffffffffffffffffffffffff1673ffffffffffffffffffffffffffffffffffffffff16815260200190815260200160002060010160009054906101000a900460ff16156109bd57600360003373ffffffffffffffffffffffffffffffffffffffff1673ffffffffffffffffffffffffffffffffffffffff168152602001908152602001600020600001549150600090505b60016000838152602001908152602001600020600101805490508160ff16101561089a573373ffffffffffffffffffffffffffffffffffffffff16600160008481526020019081526020016000206001018260ff1681548110151561084057fe5b906000526020600020900160009054906101000a900473ffffffffffffffffffffffffffffffffffffffff1673ffffffffffffffffffffffffffffffffffffffff16141561088d5761089a565b80806001019150506107df565b5b600180600084815260200190815260200160002060010180549050038160ff16101561099257600160008381526020019081526020016000206001016001820160ff168154811015156108ea57fe5b906000526020600020900160009054906101000a900473ffffffffffffffffffffffffffffffffffffffff16600160008481526020019081526020016000206001018260ff1681548110151561093c57fe5b906000526020600020900160006101000a81548173ffffffffffffffffffffffffffffffffffffffff021916908373ffffffffffffffffffffffffffffffffffffffff160217905550808060010191505061089b565b600160008381526020019081526020016000206001018054809190600190036109bb9190610ea6565b505b82600360003373ffffffffffffffffffffffffffffffffffffffff1673ffffffffffffffffffffffffffffffffffffffff168152602001908152602001600020600001819055506001600360003373ffffffffffffffffffffffffffffffffffffffff1673ffffffffffffffffffffffffffffffffffffffff16815260200190815260200160002060010160006101000a81548160ff021916908315150217905550600160008481526020019081526020016000206001018054809190600101610a879190610ea6565b50336001600085815260200190815260200160002060010160018060008781526020019081526020016000206001018054905003815481101515610ac757fe5b906000526020600020900160006101000a81548173ffffffffffffffffffffffffffffffffffffffff021916908373ffffffffffffffffffffffffffffffffffffffff1602179055505b505050565b6000600360003373ffffffffffffffffffffffffffffffffffffffff1673ffffffffffffffffffffffffffffffffffffffff16815260200190815260200160002060010160009054906101000a900460ff1615610b95577fffffffffffffffffffffffffffffffffffffffffffffffffffffffffffffffff9050610bdb565b600360003373ffffffffffffffffffffffffffffffffffffffff1673ffffffffffffffffffffffffffffffffffffffff1681526020019081526020016000206000015490505b90565b600460003373ffffffffffffffffffffffffffffffffffffffff1673ffffffffffffffffffffffffffffffffffffffff16815260200190815260200160002060000160009054906101000a900460ff161515610cf1576001600460003373ffffffffffffffffffffffffffffffffffffffff1673ffffffffffffffffffffffffffffffffffffffff16815260200190815260200160002060000160006101000a81548160ff021916908315150217905550670de0b6b3a7640000600460003373ffffffffffffffffffffffffffffffffffffffff1673ffffffffffffffffffffffffffffffffffffffff168152602001908152602001600020600101819055506005600081548092919060010191905055505b565b600080600080600660003373ffffffffffffffffffffffffffffffffffffffff1673ffffffffffffffffffffffffffffffffffffffff168152602001908152602001600020935060009250600091505b8380549050821015610db957858483815481101515610d5e57fe5b9060005260206000209060020201600001541415610dac5760019250848483815481101515610d8957fe5b906000526020600020906002020160010160008282540192505081905550610db9565b8180600101925050610d43565b821515610e1e57838054809190600101610dd39190610ed2565b9050858482815481101515610de457fe5b906000526020600020906002020160000181905550848482815481101515610e0857fe5b9060005260206000209060020201600101819055505b505050505050565b828054600181600116156101000203166002900490600052602060002090601f016020900481019282601f10610e6757805160ff1916838001178555610e95565b82800160010185558215610e95579182015b82811115610e94578251825591602001919060010190610e79565b5b509050610ea29190610f04565b5090565b815481835581811511610ecd57818360005260206000209182019101610ecc9190610f04565b5b505050565b815481835581811511610eff57600202816002028360005260206000209182019101610efe9190610f29565b5b505050565b610f2691905b80821115610f22576000816000905550600101610f0a565b5090565b90565b610f5591905b80821115610f5157600080820160009055600182016000905550600201610f2f565b5090565b905600a165627a7a72305820d1efecc4d0dc13723e17c2dcc115da42798d0ec7271a3e524fe4c0d9b7ae7f1e0029",
  "source": "pragma solidity ^0.4.2;\n\ncontract Portfolios {\n\n    address public teacher;\n\n    // ------------------------------------------------------------------------\n    // Project management\n    // ------------------------------------------------------------------------\n\n    // Project definition\n    struct Project {\n        address creator;\n        address[] members;   // maximum of 10 members per project\n\n        bytes32 whitepaper;  // IPFS hash\n        string title;\n        // string summary;\n\n        uint n_votes;        // amount of investment so far\n    }\n\n    // A dynamic list (implemented as a mapping) of projects\n    mapping(uint => Project) projects;\n    uint public n_projects;\n\n    //TODO: this is redundant with Project::members\n    struct membership {\n        uint i_project;\n        bool assigned;\n    }\n    mapping(address => membership) memberships;\n\n    // ------------------------------------------------------------------------\n    // Voting\n    // ------------------------------------------------------------------------\n\n    struct voter {\n        bool active;\n        uint n_votes;\n    }\n\n    mapping(address => voter) voters;\n    uint activeVoters;\n\n    struct votecast {\n        uint i_project;\n        uint n_votes;\n    }\n\n    mapping(address => votecast[]) investments;\n\n    // ------------------------------------------------------------------------\n    // Events\n    // ------------------------------------------------------------------------\n\n    event Voted(address voter, uint i_project, uint n_votes);\n\n    // ------------------------------------------------------------------------\n    // Constructor and a kill switch\n    // ------------------------------------------------------------------------\n\n    function Portfolios()\n      public {\n        teacher = msg.sender;\n        voters[teacher].active = true;\n        voters[teacher].n_votes = 35 ether;  // the teacher is rich :)\n        activeVoters = 1;\n        n_projects = 0;\n    }\n\n    function kill()\n      public {\n        if (msg.sender != teacher)\n            return;\n\n    }\n\n    // ------------------------------------------------------------------------\n    // Private methods\n    // ------------------------------------------------------------------------\n\n    // Checks if the user is new and if so, initializes his/her voting capital\n    // to 1 ether.\n    function initVotes()\n      private\n    {\n        if (!voters[msg.sender].active) {\n            voters[msg.sender].active = true;\n            voters[msg.sender].n_votes = 1 ether;\n            activeVoters++;\n        }\n    }\n\n    function updateInvestments(uint i_project, uint n_votes)\n      private\n    {\n        votecast[] storage portfolio = investments[msg.sender];\n\n        bool alreadyVoted = false;\n        for (uint i_vote = 0; i_vote < portfolio.length; i_vote++) {\n            if (portfolio[i_vote].i_project == i_project) {\n                alreadyVoted = true;\n                portfolio[i_vote].n_votes += n_votes;\n                break;\n            }\n        }\n        if (!alreadyVoted) {\n            uint voteLogLength = portfolio.length++;\n            portfolio[voteLogLength].i_project = i_project;\n            portfolio[voteLogLength].n_votes = n_votes;\n        }\n    }\n\n    // ------------------------------------------------------------------------\n    // Public methods for voting and grading\n    // ------------------------------------------------------------------------\n\n    // Vote casting\n    function vote(uint i_project, uint n_votes)\n      public\n    {\n        initVotes();\n        if (voters[msg.sender].n_votes < n_votes)\n            return; // insufficient funds\n\n        voters[msg.sender].n_votes  -= n_votes;\n        projects[i_project].n_votes += n_votes;\n\n        updateInvestments(i_project, n_votes);\n\n        Voted(msg.sender, i_project, n_votes);\n    }\n\n    // How much capital does a voter have?\n    function capital()\n      public\n      returns (uint _capital)\n    {\n        initVotes();\n\n        // 1. Capital not invested\n        _capital = voters[msg.sender].n_votes / 2;\n\n        int hp = homeProject();\n        if (hp != -1) {\n\n            // 2. Capital earned in own project\n            Project storage myProject = projects[uint(hp)];\n            _capital += myProject.n_votes / (myProject.members.length);\n\n            // 3. Capital invested in other projects\n            votecast[] storage portfolio = investments[msg.sender];\n            for (uint i_vote = 0; i_vote < portfolio.length; i_vote++) {\n                Project storage p = projects[portfolio[i_vote].i_project];\n                _capital += portfolio[i_vote].n_votes * p.n_votes / (1 ether * p.members.length);\n            }\n        }\n    }\n\n    // What is the current grade? Grade is multiplied by 2 to avoid fixed point\n    // arithmetics.\n    function grade()\n      public\n      returns (uint8 _grade)\n    {\n        uint _capital = capital();\n        if (_capital <= 0.5 ether)\n            _grade = 6;\n        else if(_capital <= 1.0 ether)\n            _grade = 7;\n        else if(_capital < 1.25 ether)\n            _grade = 8;\n        else if(_capital < 1.75 ether)\n            _grade = 9;\n        else\n            _grade = 10;\n    }\n\n    // ------------------------------------------------------------------------\n    // Public methods for project management\n    // ------------------------------------------------------------------------\n\n    // Creates a new project\n    function newProject(bytes32 whitepaper, string title)\n      public\n    {\n        projects[n_projects].whitepaper = whitepaper;\n        projects[n_projects].title = title;\n        projects[n_projects].creator = msg.sender;\n        joinProject(n_projects);\n        n_projects++;\n    }\n\n    // Joins a project\n    function joinProject(uint i_project)\n      public\n    {\n        if (i_project >= n_projects)\n            return;\n        if (memberships[msg.sender].assigned) {  // already a member\n            uint existingProject = memberships[msg.sender].i_project;\n            uint8 i_member = 0;\n            for (; i_member < projects[existingProject].members.length; i_member++) {\n                if (projects[existingProject].members[i_member] == msg.sender)\n                    break;\n            }\n            for (; i_member < projects[existingProject].members.length - 1; i_member++) {\n                projects[existingProject].members[i_member] = projects[existingProject].members[i_member + 1];\n            }\n            projects[existingProject].members.length--;\n        }\n        memberships[msg.sender].i_project = i_project;\n        memberships[msg.sender].assigned = true;\n\n        projects[i_project].members.length++;\n        projects[i_project].members[projects[i_project].members.length - 1] = msg.sender;\n    }\n\n    // What is my home project?\n    function homeProject()\n      public view\n      returns (int)\n    {\n        if (memberships[msg.sender].assigned) {  // already a member\n            return -1;\n        } else {\n            return int(memberships[msg.sender].i_project);\n        }\n    }\n}\n",
  "sourcePath": "/home/sraczynski/workspace/pg/romo/backend/contracts/Portfolios.sol",
  "compiler": {
    "name": "solc",
    "version": "0.4.18+commit.9cf6e910.Emscripten.clang"
  },
  "schemaVersion": "1.0.1",
  "updatedAt": "2018-01-06T17:29:33.112Z"
}